{
  "contractName": "StyleElite",
  "abi": [
    {
      "inputs": [],
      "payable": true,
      "stateMutability": "payable",
      "type": "constructor"
    },
    {
      "constant": true,
      "inputs": [
        {
          "internalType": "address",
          "name": "",
          "type": "address"
        }
      ],
      "name": "seller",
      "outputs": [
        {
          "internalType": "bool",
          "name": "",
          "type": "bool"
        }
      ],
      "payable": false,
      "stateMutability": "view",
      "type": "function"
    },
    {
      "constant": false,
      "inputs": [
        {
          "internalType": "address",
          "name": "adminAddr",
          "type": "address"
        }
      ],
      "name": "addAdmin",
      "outputs": [],
      "payable": false,
      "stateMutability": "nonpayable",
      "type": "function"
    },
    {
      "constant": false,
      "inputs": [
        {
          "internalType": "address payable",
          "name": "itemSeller",
          "type": "address"
        },
        {
          "internalType": "uint256",
          "name": "itemPrice",
          "type": "uint256"
        }
      ],
      "name": "buy",
      "outputs": [],
      "payable": true,
      "stateMutability": "payable",
      "type": "function"
    },
    {
      "constant": false,
      "inputs": [
        {
          "internalType": "address",
          "name": "sellerAddr",
          "type": "address"
        }
      ],
      "name": "removeAccount",
      "outputs": [],
      "payable": false,
      "stateMutability": "nonpayable",
      "type": "function"
    },
    {
      "constant": false,
      "inputs": [
        {
          "internalType": "address",
          "name": "sellerAddr",
          "type": "address"
        }
      ],
      "name": "blockAccount",
      "outputs": [],
      "payable": false,
      "stateMutability": "nonpayable",
      "type": "function"
    },
    {
      "constant": false,
      "inputs": [
        {
          "internalType": "address",
          "name": "sellerAddr",
          "type": "address"
        }
      ],
      "name": "unblockAccount",
      "outputs": [],
      "payable": false,
      "stateMutability": "nonpayable",
      "type": "function"
    },
    {
      "constant": true,
      "inputs": [],
      "name": "getBalanceContract",
      "outputs": [
        {
          "internalType": "uint256",
          "name": "",
          "type": "uint256"
        }
      ],
      "payable": false,
      "stateMutability": "view",
      "type": "function"
    },
    {
      "constant": false,
      "inputs": [
        {
          "internalType": "uint256",
          "name": "id_",
          "type": "uint256"
        },
        {
          "internalType": "uint256",
          "name": "price_",
          "type": "uint256"
        },
        {
          "internalType": "address",
          "name": "sellerAddr",
          "type": "address"
        }
      ],
      "name": "registerSeller",
      "outputs": [],
      "payable": false,
      "stateMutability": "nonpayable",
      "type": "function"
    },
    {
      "constant": true,
      "inputs": [],
      "name": "getLength",
      "outputs": [
        {
          "internalType": "uint256",
          "name": "",
          "type": "uint256"
        }
      ],
      "payable": false,
      "stateMutability": "view",
      "type": "function"
    },
    {
      "constant": true,
      "inputs": [
        {
          "internalType": "uint256",
          "name": "index",
          "type": "uint256"
        }
      ],
      "name": "getItemsByIndex",
      "outputs": [
        {
          "internalType": "uint256",
          "name": "",
          "type": "uint256"
        },
        {
          "internalType": "uint256",
          "name": "",
          "type": "uint256"
        },
        {
          "internalType": "address",
          "name": "",
          "type": "address"
        }
      ],
      "payable": false,
      "stateMutability": "view",
      "type": "function"
    }
  ],
  "bytecode": "0x60806040526001600260003373ffffffffffffffffffffffffffffffffffffffff1673ffffffffffffffffffffffffffffffffffffffff16815260200190815260200160002060006101000a81548160ff0219169083151502179055506109ac8061006b6000396000f3fe6080604052600436106100915760003560e01c8063704802751161005957806370480275146102695780637c0a893d146102ba578063be1c766b1461030b578063c4740a9514610336578063cce7ec131461038757610091565b806327c31fd91461009657806339b9c30c1461011f5780634d616163146101885780634d78fdc6146101ed57806366bd78fd1461023e575b600080fd5b3480156100a257600080fd5b506100cf600480360360208110156100b957600080fd5b81019080803590602001909291905050506103d5565b604051808481526020018381526020018273ffffffffffffffffffffffffffffffffffffffff1673ffffffffffffffffffffffffffffffffffffffff168152602001935050505060405180910390f35b34801561012b57600080fd5b5061016e6004803603602081101561014257600080fd5b81019080803573ffffffffffffffffffffffffffffffffffffffff169060200190929190505050610463565b604051808215151515815260200191505060405180910390f35b34801561019457600080fd5b506101eb600480360360608110156101ab57600080fd5b810190808035906020019092919080359060200190929190803573ffffffffffffffffffffffffffffffffffffffff169060200190929190505050610483565b005b3480156101f957600080fd5b5061023c6004803603602081101561021057600080fd5b81019080803573ffffffffffffffffffffffffffffffffffffffff1690602001909291905050506105c0565b005b34801561024a57600080fd5b50610253610670565b6040518082815260200191505060405180910390f35b34801561027557600080fd5b506102b86004803603602081101561028c57600080fd5b81019080803573ffffffffffffffffffffffffffffffffffffffff169060200190929190505050610678565b005b3480156102c657600080fd5b50610309600480360360208110156102dd57600080fd5b81019080803573ffffffffffffffffffffffffffffffffffffffff169060200190929190505050610729565b005b34801561031757600080fd5b506103206107da565b6040518082815260200191505060405180910390f35b34801561034257600080fd5b506103856004803603602081101561035957600080fd5b81019080803573ffffffffffffffffffffffffffffffffffffffff1690602001909291905050506107e6565b005b6103d36004803603604081101561039d57600080fd5b81019080803573ffffffffffffffffffffffffffffffffffffffff1690602001909291908035906020019092919050505061088e565b005b60008060008084815481106103e657fe5b9060005260206000209060030201600001546000858154811061040557fe5b9060005260206000209060030201600101546000868154811061042457fe5b906000526020600020906003020160020160009054906101000a900473ffffffffffffffffffffffffffffffffffffffff169250925092509193909250565b60016020528060005260406000206000915054906101000a900460ff1681565b60018060008373ffffffffffffffffffffffffffffffffffffffff1673ffffffffffffffffffffffffffffffffffffffff16815260200190815260200160002060006101000a81548160ff0219169083151502179055506104e2610940565b838160000181815250508281602001818152505081816040019073ffffffffffffffffffffffffffffffffffffffff16908173ffffffffffffffffffffffffffffffffffffffff168152505060008190806001815401808255809150509060018203906000526020600020906003020160009091929091909150600082015181600001556020820151816001015560408201518160020160006101000a81548173ffffffffffffffffffffffffffffffffffffffff021916908373ffffffffffffffffffffffffffffffffffffffff16021790555050505050505050565b600260003373ffffffffffffffffffffffffffffffffffffffff1673ffffffffffffffffffffffffffffffffffffffff16815260200190815260200160002060009054906101000a900460ff1661061657600080fd5b60018060008373ffffffffffffffffffffffffffffffffffffffff1673ffffffffffffffffffffffffffffffffffffffff16815260200190815260200160002060006101000a81548160ff02191690831515021790555050565b600047905090565b600260003373ffffffffffffffffffffffffffffffffffffffff1673ffffffffffffffffffffffffffffffffffffffff16815260200190815260200160002060009054906101000a900460ff166106ce57600080fd5b6001600260008373ffffffffffffffffffffffffffffffffffffffff1673ffffffffffffffffffffffffffffffffffffffff16815260200190815260200160002060006101000a81548160ff02191690831515021790555050565b600260003373ffffffffffffffffffffffffffffffffffffffff1673ffffffffffffffffffffffffffffffffffffffff16815260200190815260200160002060009054906101000a900460ff1661077f57600080fd5b6000600160008373ffffffffffffffffffffffffffffffffffffffff1673ffffffffffffffffffffffffffffffffffffffff16815260200190815260200160002060006101000a81548160ff02191690831515021790555050565b60008080549050905090565b600260003373ffffffffffffffffffffffffffffffffffffffff1673ffffffffffffffffffffffffffffffffffffffff16815260200190815260200160002060009054906101000a900460ff1661083c57600080fd5b600160008273ffffffffffffffffffffffffffffffffffffffff1673ffffffffffffffffffffffffffffffffffffffff16815260200190815260200160002060006101000a81549060ff021916905550565b808034101561089c57600080fd5b82600160008273ffffffffffffffffffffffffffffffffffffffff1673ffffffffffffffffffffffffffffffffffffffff16815260200190815260200160002060009054906101000a900460ff166108f357600080fd5b8373ffffffffffffffffffffffffffffffffffffffff166108fc349081150290604051600060405180830381858888f19350505050158015610939573d6000803e3d6000fd5b5050505050565b60405180606001604052806000815260200160008152602001600073ffffffffffffffffffffffffffffffffffffffff168152509056fea265627a7a72315820d68b8eb3fdd205f95f73997910ddcc053ef6b5a0e7a32784e6c9cf849623243264736f6c63430005100032",
  "source": "// SPDX-License-Identifier: MIT\npragma solidity >=0.4.22 <0.9.0;\n\ncontract StyleElite {\n\n    struct SellerItem{\n        uint id;\n        uint price;\n        address accountNumber;\n    }\n\n    SellerItem[] sellerItem;\n    mapping(address => bool) public seller;\n    mapping(address => bool) private admin;\n    \n    constructor() public payable{\n        admin[msg.sender] = true;\n    }\n    modifier OnlyAdmin(){\n        require(admin[msg.sender]);\n        _;\n    }\n\n    modifier sufficientMoneySent(uint itemValue){\n        require(msg.value>=itemValue);\n        _;\n    }\n\n    modifier SellerActive(address sellerAdd){\n        require(seller[sellerAdd]);\n        _;\n    }\n\n    function addAdmin(address adminAddr) public OnlyAdmin{\n        admin[adminAddr] = true;\n    }\n    function buy(address payable itemSeller, uint itemPrice) public payable sufficientMoneySent(itemPrice) SellerActive(address(itemSeller)){\n        itemSeller.transfer(msg.value);\n    }\n    function removeAccount(address sellerAddr) public OnlyAdmin{\n        delete seller[sellerAddr];\n    }\n    function blockAccount(address sellerAddr) public OnlyAdmin{\n        seller[sellerAddr] = false;\n    }\n    function unblockAccount(address sellerAddr) public OnlyAdmin{\n        seller[sellerAddr] = true;\n    }\n    function getBalanceContract() public view returns(uint){\n        return address(this).balance;\n    }\n\n    function registerSeller(uint id_, uint price_, address sellerAddr) public {//OnlyAdmin\n        seller[sellerAddr] = true;\n        SellerItem memory item;\n        item.id=id_;\n        item.price=price_;\n        item.accountNumber=sellerAddr;\n        sellerItem.push(item);\n    }\n    \n    function getLength() public view returns(uint){\n        return sellerItem.length;\n    }\n    function getItemsByIndex(uint index)public view returns(uint, uint, address){\n        return (sellerItem[index].id,sellerItem[index].price,sellerItem[index].accountNumber);\n    }\n\n}",
  "sourcePath": "C:\\Users\\yakan\\OneDrive\\Desktop\\postnews\\se-dapp_final\\se-dapp\\se-contract\\contracts\\StyleElite.sol",
  "compiler": {
    "name": "solc",
    "version": "0.5.16+commit.9c3226ce.Emscripten.clang"
  },
  "schemaVersion": "3.4.6",
  "updatedAt": "2022-04-18T01:39:58.472Z",
  "networkType": "ethereum",
  "devdoc": {
    "methods": {}
  },
  "userdoc": {
    "methods": {}
  }
}